:100000000C9404000C9427000FEF0DBF08E00EBF06
:1000100011241FBE00C0A0E0B1E0E4E3F7E02AE055
:1000200031E005900D92AA30B30708F4FACF0BC067
:10003000E8E0F0E088E090E0E830F90719F0099591
:100040003296FACF0895F4DF51D369D3FFCF00C0C1
:100050009C01DB010E94280008952F923F924F924D
:100060005F926F927F928F929F92AF92BF92CF9248
:10007000DF92EF92FF920F931F93CF93DF93AC0128
:1000800097FDBCC19B0177FDB5C1771F7727771F0F
:10009000692F661F6627661F671709F4A7C14424E6
:1000A0004A94542CBA016627770F661F77276B0195
:1000B000C21AD30A6217730708F495C1E12CD0E87D
:1000C000FD2E6217730708F0B6011B01220C331CCA
:1000D0006A01C4E0DC9EC12CDD24112461E0C6224B
:1000E000DD24B1016C297D291B01221A330A670125
:1000F0006894D6F86217730708F0760162177307E1
:1001000008F0B1011B01220C331C6A01A8E0DA9E41
:10011000C12CDD24112461E0C622DD24B1016C294B
:100120007D291B01221A330A67016894D5F86217EA
:10013000730708F076016217730708F0B1011B011D
:10014000220C331C6A01CD2CDD24C294EFE0CE22B8
:1001500061E0C622DD24B1016C297D291B01221A30
:10016000330A67016894D4F86217730708F07601C0
:100170006217730708F0B1011B01220C331C6A01DE
:10018000CD2CDD24C694C694C69461E0C622DD243D
:10019000B1016C297D291B01221A330A6701689479
:1001A000D3F86217730708F076016217730708F037
:1001B000B1011B01220C331C6A01CD2CDD24C69435
:1001C000C69461E0C622DD24B1016C297D291B01A2
:1001D000221A330A67016894D2F86217730708F08D
:1001E00076016217730708F0B1011B01220C331C62
:1001F0006A01CD2CDD24C69461E0C622DD24B10164
:100200006C297D291B01221A330A67016894D1F8F1
:100210006217730708F076016217730708F0B101DF
:100220006B01CC0CDD1C652F7727617077276C295B
:100230007D291B01221A330A67016894D0F86217DE
:10024000730708F076016217730708F0B101660FB3
:10025000771F47FB002700F910E0062B172BB8018A
:10026000621B730B67016894C7F80217130708F045
:1002700076010217130708F08B01000F111F46FBD0
:10028000662760F9C62F60E0D62FC02BD12BBE01A8
:10029000621B730B67016894C6F8C217D30708F096
:1002A0007601C217D30708F0EB01CC0FDD1F45FB29
:1002B000AA27A0F9B0E0AC2BBD2BBD01621B730BCC
:1002C00067016894C5F8A217B30708F07601A21772
:1002D000B30708F0DB01AA0FBB1F44FBEE27E0F9D0
:1002E000F0E0EA2BFB2BBF01621B730B67016894E4
:1002F000C4F8E217F30708F07601E217F30708F0F5
:10030000FB01EE0FFF1F43FBAA24A0F8B12CAE2A7D
:10031000BF2AD501A21BB30B67016894C3F8A216CC
:10032000B30608F46701A216B30608F05D01AA0C33
:10033000BB1C42FB882480F8912C8A289B28B4019E
:10034000621B730BF601E4608216930608F06F01DE
:100350008216930608F04B01880C991C41FB662419
:1003600060F8712C68287928B301621B730BF601C1
:10037000E2606216730608F4F6016216730608F06E
:100380003B01660C771C4170552746295729BA0155
:10039000621B730BDF01A1604217530708F4BA0117
:1003A0004217530708F0FD01E49D9001E59D300DD3
:1003B000F49D300D112497FD26C0AB01B901CA018F
:1003C000DF91CF911F910F91FF90EF90DF90CF9031
:1003D000BF90AF909F908F907F906F905F904F9065
:1003E0003F902F900895E12CF12C6BCE4424439440
:1003F000512C58CE31952195310947CE44275527A8
:10040000481B590B3FCE44275527461B570BD6CFC9
:1004100057FD05C04F5F5F4F70E00C9408020895D0
:100420001092C50087E68093C40086E08093C200E6
:1004300088E18093C10008959091C00095FFFCCFA2
:100440008093C6000895FC012081222351F031964B
:100450009091C00095FFFCCF2093C60021912111FF
:10046000F7CF0895662391F0FC016150262F30E00C
:100470002F5F3F4F280F391F91918091C00085FF5A
:10048000FCCF9093C600E217F307B1F70895AF923F
:10049000BF92CF92DF92EF92FF920F931F93CF9371
:1004A000DF93CDB7DEB7ADB6BEB6262F30E079010B
:1004B0004FEFE41AF40AEDB7FEB7EE19FF090FB6D5
:1004C000F894FEBF0FBEEDBF4DB75EB74F5F5F4FF5
:1004D000E40EF51EFA01E20FF31F128241E0460F0F
:1004E000F9F087010F5F1F4F2AE0C22ED12CB60111
:1004F0000E942D00805DF80182938F01CB01F701EE
:1005000032917F01332351F0F8012091C00025FF83
:10051000FCCF3093C60031913111F7CF415039F7FC
:100520000FB6F894BEBE0FBEADBEDF91CF911F9146
:100530000F91FF90EF90DF90CF90BF90AF90089514
:100540004CE850E060E08AE091E00E94080287E910
:1005500091E090930D0180930C0190930B01809397
:100560000A0108958830910508F453C0DC01A87F82
:100570001896B695A795B695A795B695A7953A2FCF
:10058000EAE0F1E081E060E090E007C09F5F931750
:1005900059F08F5F8D3809F440C021912223B1F3C7
:1005A000682F90E09313F5CF40910A0150910B0111
:1005B0009130B1F121E0260FE62FF0E0E65FFE4F2B
:1005C00081E08083BB27BD0161507109822F90E0DB
:1005D000861797075CF433E0FC01E65FFE4F30833B
:1005E0002F5F822F90E086179707B4F3FC01E65F38
:1005F000FE4F27E02083AA0FBB1FAA0FBB1FAA0F25
:10060000BB1FA40FB51FB0930B01A0930A01CA0131
:10061000089531E0A1E0B0E0B3CF80E090E008952C
:10062000E62FF0E0E65FFE4F9083CA0108969093B4
:100630000B0180930A01CA01089520910C013091A9
:100640000D018217930708F44BC0A901405A5B4F74
:100650008417950708F044C0821B930B97FD42C096
:10066000959587959595879595958795282F9927A1
:10067000FC01E65FFE4F8081813091F580E004C08F
:10068000973011F18D3881F1108221508F5FE22F68
:10069000F0E0E65FFE4F90819111F2CF90E0880F7D
:1006A000991F880F991F880F991F9195819591091E
:1006B00020910A0130910B01820F931F90930B013F
:1006C00080930A0181E0089590E0880F991F880FB8
:1006D000991F880F991F9195819591091082E8CFF4
:1006E0008FEF08950796BCCF80E0089587E0809350
:1006F00080010E94100265E089E390E30E944702B6
:100700006AE080E091E00E94320280E099E0ADE38F
:10071000B0E000000197A109B109D9F7F1CFC8E015
:10072000D0E0A8E0B0E02297AC17BD0711F0099522
:04073000FACF08955F
:0A07340048454C4C4F20415652211D
:00000001FF
